:020000041000EA
:1000000000B5324B212058609868022188439860DF
:10001000D860186158612E4B002199600221596106
:100020000121F02299502B49196001219960352056
:1000300000F044F80222904214D00621196600F024
:1000400034F8196E01211966002018661A6600F04E
:100050002CF8196E196E196E052000F02FF8012189
:100060000842F9D1002199601B49196000215960AB
:100070001A491B48016001219960EB211966A021F2
:10008000196600F012F800219960164914480160C1
:100090000121996001BC002800D000471248134993
:1000A000086003C880F30888084703B5996A0420EC
:1000B0000142FBD001200142F8D103BD02B5186610
:1000C0001866FFF7F2FF186E186E02BD00000240BE
:1000D000000000180000070000035F00212200005C
:1000E000F4000018222000A00001001008ED00E03C
:1000F00000000000000000000000000074B24E7A12
:1001000000200420D5B50010B1B50010B7B500101F
:1001100000000000000000000000000000000000DF
:10012000000000000000000000000000BDB500104D
:100130000000000000000000C3B50010C9B50010A9
:10014000B5EB0110CFB50010CFB50010CFB5001042
:10015000CFB50010CFB50010CFB50010CFB500104F
:10016000CFB50010CFB50010CFB50010CFB500103F
:10017000CFB50010CFB50010CFB50010CFB500102F
:10018000CFB50010CFB50010CFB50010CFB500101F
:10019000CFB50010CFB50010CFB50010CFB500100F
:1001A000CFB50010CFB50010000000000000000027
:1001B000000000000000000000000000000000003F
:1001C00098B000F0FDF800216E4801806E480022D2
:1001D000012119F035FA011C6C4801606C480022BD
:1001E000012119F0A9FA011C6A48016019F09CFB71
:1001F00019F0B8FB19F0FEFB19F01CFC00F0BEF87A
:100200001EF0E0FE644800680079002801D000F08C
:1002100002F800F004F86148006822F00DFC604824
:1002200000680079002801D000F002F800F004F81E
:100230005A48006822F00BFC5A4800688068002881
:1002400001DD00F002F800F099F856480068806877
:100250000138051C002D01DB00F002F800F08EF8DB
:100260005149524801605148006801304F490860C7
:100270004F480078002801D000F002F800F076F82E
:1002800000214B4801704748026848480168101C2B
:1002900019F043F9011C474808F024FDC0B20028BA
:1002A00001D000F002F800F019F83E4802683F481B
:1002B0000168101C19F031F9007D002801D000F010
:1002C00002F800F00BF83748026838480168101C43
:1002D00019F023F9041C2168896E884731480268A7
:1002E00032480168101C19F018F9011C324808F056
:1002F000F9FCC0B2002801D000F002F800F00BF8C1
:100300002848026829480168101C19F006F9041CE5
:100310002168896E88472348026824480168101CB8
:1003200019F0FBF8011C254808F0DCFCC0B20028DD
:1003300001D000F002F800F019F81A4802681B48D2
:100340000168101C19F0E9F8007D002801D000F0C8
:1003500002F800F00BF81348026814480168101CFA
:1003600019F0DBF8041C2168896E88470F48006883
:10037000854201DC00F002F8FFF775FFFFF740FF50
:100380000AF006FD40130020A860021084400020FF
:10039000C861021088400020944000209C4000204A
:1003A000984000208C400020FFFFFFFF44130020F6
:1003B000D840002070920210F09202107093021048
:1003C00000B522F079FA1EF0E9FA22F069F818F087
:1003D000DDFE1EF06BFC00BD00B50BF0E3F81EF077
:1003E000E5FA22F05FF818F0D9FE00BD00B58CB038
:1003F0000CB000BD00B58CB00CB000BDF0C04146E3
:10040000016049464160514681605946C160694674
:1004100001617146416100207047704700B58AB0A4
:10042000031C081C00D10120F0CB1A6890465A68C2
:1004300091469A689246DA6893461A6995465A69CF
:1004400097460AB000BD000000B588B004480078A7
:1004500020210843C1B20248017008B000BDC04667
:10046000103F002030B58EB00BB2111C002B01D113
:1004700000F002F800F003F8021C00F01CF8202B3A
:1004800001DA00F002F800F010F85C421F252C4061
:10049000051CA540002D01D1002500E00125041C0C
:1004A000DC402C43221C00F006F8002801D100207B
:1004B00000E00120021C0A600EB030BDF0B58BB028
:1004C00012B20093109F54421F231C4065B2002AB1
:1004D00001D100F002F800F004F80B1C061C00F03B
:1004E0001EF8202A01DA00F002F800F00AF8041CD5
:1004F000AC40D14021430B1C011CD1400E1C00F02C
:100500000EF8402A01DA00F002F800F006F81F2188
:100510000A40D040031C00F001F8002300263B6095
:10052000311C009801600BB0F0BDF0B58BB00290AB
:10053000039112B2009301981098019051421F202C
:10054000014049B2002A01D100F002F800F004F89D
:10055000039E029F00F04DF8202A01DA00F002F815
:1005600000F014F8039BD3400C1C029DA5401D43D2
:10057000039BA340002B01D1002000E00120284371
:10058000061C029BD3401F1C00F033F8202A01D127
:1005900000F002F800F00BF80398002801D10023C6
:1005A00000E00123029C1C43261C00F021F8402A95
:1005B00001DA00F002F800F012F8029B8B40039978
:1005C0001943002901D1002300E001231F2002402C
:1005D0000299D140081C1843061C00F009F8039941
:1005E00002980143002901D1002000E00120061CEF
:1005F0000027311C01980160391C009801600BB084
:10060000F0BDF0B592B003900F1C14B20093002C13
:1006100001D100F002F800F007F802980398029068
:100620000198019700F031F8402C01DA00F002F84F
:1006300000F01FF8221C391C039805F0A0FC051CD3
:100640000E1C6042021C3F200240391C039805F03A
:1006500068FC014301D1002300E001230020291C94
:10066000321C19430243029802910198019200F052
:100670000CF8391C0398014301D1002200E001224B
:1006800000210298029201980191029A0199009822
:1006900002600098416012B0F0BDF0B58DB00390DB
:1006A00004921DB20098129800900198139801903E
:1006B00002981498029068421F22104042B2002D06
:1006C00001D100F002F800F005F8049B0E1C039F16
:1006D00000F04BF8202D01DA00F002F800F00EF8DF
:1006E000081C9040031C039C9440081CE8402043D5
:1006F000061C039CEC40271C00F030F8202D01D193
:1007000000F002F800F004F80B1C039E00F025F83E
:10071000049808430490402D01DA00F002F800F03C
:100720000BF8039991400B1C2A1C1F2002400399CF
:10073000D1400E1C00F011F8402D01D100F002F85C
:1007400000F003F8039B00F007F80398002801D19C
:10075000002000E00120031C002600270498002848
:1007600001D1002000E001200343191C0298016020
:10077000311C01980160391C009801600DB0F0BD7A
:1007800030B58BB0041C15B20E9A081CA84010603E
:10079000002D01D100F002F800F003F81C6000F019
:1007A00008F868421F221040C140201CA84008439E
:1007B00018600BB030BD30B58DB0109D119C5B182A
:1007C00023608B4201D3002100E00121121852184E
:1007D0002A600DB030BDF0B591B0169E179D009CFB
:1007E000189C0094019C199C0194029C1A9C0294F0
:1007F0002C1CA418271C974201D3002200E00122E0
:10080000341C64188C4201D3002100E001211B1824
:10081000A418261C002552B2101CC017854201DA0C
:1008200000F009F801DD00F009F8964201D200F06D
:1008300002F800F003F8012000F001F800201B1876
:100840005B18391C02980160211C01980160191C79
:100850000098016011B0F0BD70B58AB00E9E0F9D7A
:100860000C1CE41A2C60041C0025101C0022241A05
:100870009541994201D3002200E001220021201C71
:10088000801A8D4130600AB070BDF0B591B0049C03
:10089000169C0494179E009C189C0094019C199C23
:1008A0000194029C1A9C0294151CAD1B039C039599
:1008B000B24201D3002200E00122161C0C1C049A53
:1008C000A41A271C049A914201D3002100E00121BF
:1008D0000D1CC01A021C391C002473B2181CC0174E
:1008E000844201DA00F009F801DD00F009F89942CC
:1008F00001D200F002F800F003F8012000F001F846
:100900000020121ABF1B521B039902980160391C68
:1009100001980160111C0098016011B0F0BDF0B5A4
:1009200092B0171C1A1C84B2000C85B28BB2081C42
:10093000000C81B2181C60430E1C6643341C6B43D0
:100940006943E4189C4201D3002300E001231B0407
:10095000C918231C1B0C5B18211C09044018884271
:1009600001D3002100E001215B1810603B6012B050
:10097000F0BDF0B58FB0061C081C069307991499BA
:100980000791159F04AB03AC151C111C221CFFF72B
:10099000C6FF05AB02AA291C301CFFF7C0FF03A845
:1009A000019002A80090039B059902980022FFF78E
:1009B00002FF04983860039907980160029906982D
:1009C00001600FB0F0BDF0B593B0071C161C08987D
:1009D000189808900998199809900A981A980A90F6
:1009E0000B981B980B9005AC04AA0C980C93181C40
:1009F0000D1C081C191C231CFFF791FF07AB03AA51
:100A0000341C311C281CFFF78AFF04A8019003A89E
:100A10000090049B079903980022FFF7CCFE06ABD9
:100A200002AA211C3C1C381CFFF779FF03A8019087
:100A300002A80090039B069902980022FFF7BBFED4
:100A400007AB06AA0C99201CFFF769FF04A80190C8
:100A500006A80090049B079906980022FFF7ABFEBA
:100A600003A8019002A80090069B03990298002217
:100A7000FFF7A1FE05990B98016004990A9801609F
:100A800003990998016002990898016013B0F0BDBC
:100A9000F0B598B009900F1C151C0998854201D833
:100AA00000F002F800F005F806983448069000F0CF
:100AB00062F8291C090C07980791081C0904099879
:100AC000814201D800F002F800F003F82C4C00F04D
:100AD00006F80999079802F0C3FC0004041C05AB52
:100AE00004AA08980894211C2E1C281CFFF717FF45
:100AF00003A8019002A80090059B049A391C09984C
:100B0000FFF7AAFE00F011F81E490898401A089055
:100B1000301C0004051C03A8019002A80090039952
:100B200002982B1C079AFFF746FE0298002801DA6C
:100B3000FFF7EAFF00F000F8029909040398000C9F
:100B400008430290079909040298814201D800F0F5
:100B500002F800F006F80C4908980843089000F0E5
:100B600007F80299079802F07BFC08990143089165
:100B7000089906980691069818B0F0BDFFFFFFFF90
:100B80000000FFFF00000100FFFF000000B58AB079
:100B900000221149884201D200F002F800F005F865
:100BA000103252B2011C0904081C0C49884201D2BF
:100BB00000F002F800F005F8083252B2011C0902F8
:100BC000081C000E064909180020085640B21218E9
:100BD00050B20AB000BDC046000001000000000194
:100BE0004D00002070B58EB0041C0D1C00260021A5
:100BF0000120854201D000F001F88C4201D200F0C2
:100C000002F800F004F8203676B200F007F820224F
:100C1000291C201C05F0B3F9041C0D1C201CFFF737
:100C2000B5FF40B2361870B20EB070BD10B58EB0C0
:100C3000904201D0002400E00124994201D9002112
:100C400000E001212140904201D3002000E001207A
:100C50000843C0B20EB010BD10B58EB0904201D0A6
:100C6000002400E00124994201D3002100E0012189
:100C70002140904201D3002000E001200843C0B28F
:100C80000EB010BD00B58AB0021C920D0B490A408F
:100C90000B498A4201D100F002F800F00BF8094933
:100CA0000840002801D000F002F800F003F801200D
:100CB00000F001F80020C0B20AB000BDFF01000042
:100CC000FE010000FFFF3F0030B58EB0051C0C1C7C
:100CD000081CFFF7D7FFC0B2002801D000F002F8CF
:100CE00000F003F8002002F0A4FE201CC00FC1B2E7
:100CF00002A8017000200190201C40020090011CFD
:100D00000198029A29606860AA600EB030BD0000A8
:100D100000B58CB0009001910292009A520A02A88C
:100D20000078C0070249084310430CB000BDC0461C
:100D30000000C07F00B58CB000900191081C0A1C17
:100D400052000C498A4201D300F002F800F00EF87C
:100D5000011C0948014000980843002801D000F018
:100D600002F800F003F8012000F001F80020C0B202
:100D70000CB000BD0000E0FFFFFF0F0000B58CB01D
:100D8000009001910A1CD20C074802400748824299
:100D900001D0002200E001220548014000980843EC
:100DA0001040C0B20CB000BDFF0F0000FE0F0000ED
:100DB000FFFF070010B590B0041C01920293191CAC
:100DC0000198FFF7DBFFC0B2002801D000F002F865
:100DD00000F003F8002002F02CFE0298C00FC0B211
:100DE00005A9087004A8009003AB019902980C2291
:100DF000FFF7C6FC03990498059A21606060A26021
:100E000010B010BD10B590B0041C01910292039374
:100E100004A8009005AB029901980C22FFF74EFB45
:100E200003A80178C90705980843044908430590B9
:100E3000049805992060616010B010BD0000F87F33
:100E4000F0B58BB000900191029203930498109832
:100E5000049001990098FFF76DFFC7B201990098BF
:100E6000FFF78CFFC6B203990298FFF763FFC5B284
:100E700003990298FFF782FFC4B2019850490843D2
:100E8000019003984E4908430390201C30430028EA
:100E900001D000F002F800F003F8002002F0C9FDD4
:100EA000002E01D000F002F800F020F8002C01D054
:100EB00000F002F800F002F800F02FF8002D01D049
:100EC00000F002F800F008F80299039A0498016013
:100ED0000498426000F006F80099019A04980160B5
:100EE0000498426000F069F800F067F8002F01D024
:100EF00000F002F800F059F8E943201C08430028EC
:100F000001D000F002F800F008F80099019A049866
:100F100001600498426000F050F8039A5200019872
:100F20004000029B0099FFF797FEC0B2002801D055
:100F300000F002F800F008F80299039A04980160A2
:100F40000498426000F039F8019A5200039840007A
:100F5000009B0299FFF780FEC0B2002801D000F08C
:100F600002F800F008F80099019A049801600498CA
:100F7000426000F022F801990398814201D200F00A
:100F800002F800F008F80099019A049801600498AA
:100F9000426000F006F80299039A049801600498F0
:100FA000426000F00AF800F008F80299039A0498E9
:100FB00001600498426000F000F80BB0F0BDC0463C
:100FC0000000080070B58CB00E1C151C041CFFF747
:100FD000DDFD40B20838C1B2201C884028600120E5
:100FE000401A30800CB070BDF0B594B00298C0B219
:100FF0000290019808B20190009276480168002999
:1010000003D003980020039002E00398012003908E
:1010100040270398002801D100F002F800F021F8E1
:10102000032901D100F002F800F003F8002700F0D6
:1010300018F87F270298002801D000F002F800F08D
:1010400009F8022901D100F002F800F001F80027A8
:1010500000F007F8012901D100F002F800F001F8D2
:10106000002700987F210840C5B2019881B2FD2970
:1010700001D300F002F800F079F80198FD2801DDB5
:1010800000F016F800F000F80198FD2801D100F0FA
:1010900002F800F00BF80098391C0918002901DA51
:1010A00000F002F800F002F800F002F800F015F885
:1010B000282002F0C9FC002F01D0002100E001210E
:1010C0000022029BDB071C1C434824180023201C21
:1010D000401A9341061C00F079F80198002801DAC3
:1010E00000F002F800F042F83C49002008560128C0
:1010F00001D0002200E0012239490198884201DB39
:10110000002000E001201043002801D000F00CF87E
:1011100000F000F80098391C09183248814201D2C9
:1011200000F002F800F003F8012400F001F80024B8
:101130000198414209B26A460098FFF793F9019875
:101140000020019000997F200140CDB2002D01D1F7
:10115000002000E00120211C0140002901D000F006
:1011600002F800F003F8042002F063FC002D01D027
:1011700000F002F800F002F8FFF766F90098391C59
:101180000918081CC0090090291C40204140002972
:1011900001D0002100E001210398C2B20A40D143EE
:1011A000009808400090002801D100F002F800F0FB
:1011B00003F80198002001900099029AD207019843
:1011C00003B2DB059B18081CC018061C301C14B0A9
:1011D000F0BDC046143F00200000807F4C0000207E
:1011E000FFFFFFFF0000008070B58EB0C6B20CB2EA
:1011F000151C101CFFF7CAFC40B2013843B2201C7A
:10120000C01A01B22A1C9A40301CC0B2FFF7ECFE93
:101210000EB070BDF0B58BB0061C0D1C0192029390
:10122000109F002E01D100F002F800F026F8281CD3
:10123000FFF7ACFC40B20B3844B2002C01DA00F0EE
:1012400002F800F00DF86042291CC14002980160CC
:10125000211C1F200140281C8840386000F006F83F
:10126000291CA140029801600020386060421F38AC
:1012700001B20198018000F012F8301CFFF786FCE3
:1012800040B20B3844B20097029B22B2291C301C9A
:10129000FFF776FA0120001B01B2019801800BB024
:1012A000F0BD10B58CB0C0B209B20E9C0093C0075F
:1012B00009B2090509185218019200990198216094
:1012C00060600CB010BD0000F0B58FB00798C0B2E0
:1012D0000790089808B20890039204931498059018
:1012E00006981598069099480668002E01D00020AF
:1012F00000E00120071C0598002801DB002000E029
:101300000120051C002F01D100F002F800F036F892
:10131000032E01D100F002F800F003F8002500F0E0
:101320002DF80798002801D000F002F800F014F81A
:10133000012E01D100F002F800F00AF8059800280B
:1013400001D000F002F800F003F8012000F001F8ED
:101350000020051C00F012F8022E01D100F002F866
:1013600000F00AF80598002801D000F002F800F01B
:1013700003F8012000F001F80020051C089881B254
:101380007348814201D300F002F800F008F9704A76
:101390000898824201DA00F025F800F000F803997D
:1013A0006C48814201D0002100E00121089882426E
:1013B00001D0002000E00120021C0A400499664888
:1013C000814201D0002000E001201040002D01D119
:1013D000002100E001210140002901D000F002F8C5
:1013E00000F043F8282002F02FFB032E01D100F07B
:1013F00026F800F000F80798002801D1002000E04E
:101400000120022E01D0002100E00121014000292D
:1014100001D000F014F800F000F80798002801D07F
:10142000002000E00120012E01D0002100E0012178
:101430000140002901D000F002F800F00BF80698F6
:101440000090454B454A4649079CE0B2FFF729FF0B
:1014500000F0E4F806980090424900230022079C1F
:10146000E0B2FFF71EFF00F0D9F80898002801DA73
:1014700000F002F800F093F83B49002008560128DC
:1014800001D0002200E0012233490898884201DBA4
:10149000002000E001201043002D01D0002100E0D9
:1014A00001210C1C04432C4B2A4A04990398FFF792
:1014B000D3FBC0B2002801D1002000E0012020436E
:1014C000041C05A8029004A8019003A800900898A5
:1014D00041420BB2059A04990398FFF7DEF8089889
:1014E00000200890002C01D000F002F800F00AF86B
:1014F0000598002801D000F002F800F003F804205D
:1015000002F097FA002F01D000F002F800F009F87D
:101510000598002801DB002000E00120051C00F0F8
:101520003EF80798002801D000F002F800F025F8F6
:10153000012E01D100F002F800F01BF805980028F8
:1015400001D000F002F800F014F80FE0143F002082
:10155000FD070000FFFF1F00FFFFFFFFFFFF0F0061
:10156000FE070000FF0700004C000020012000F0F3
:1015700001F80020051C00F012F8022E01D100F045
:1015800002F800F00AF80598002801D000F002F8EF
:1015900000F003F8012000F001F80020051C059878
:1015A000002801D000F002F800F002F8FEF74CFF2E
:1015B000002D01D000F002F800F01AF804A8019004
:1015C00003A800900499039801230022FFF7F3F881
:1015D0000599081C4018002801D0002000E00120D7
:1015E000391C0140C94304980840049000F00CF8ED
:1015F000039904980843002801D100F002F800F094
:1016000003F808980020089006980090049B039A1D
:10161000089909B2079CE0B2FFF743FE0FB0F0BD96
:10162000F0B59BB004900698C8B20690059810B229
:10163000059020A8016840680091019096480168D3
:10164000002901D0002200E00122079807920898A3
:10165000924808900798002801D100F002F800F0A5
:1016600029F8032901D100F002F800F005F80898E4
:101670000020089000F01EF8089889480890069805
:10168000002801D000F002F800F00BF8022901D187
:1016900000F002F800F003F808980020089000F02D
:1016A00009F8012901D100F002F800F003F80898C8
:1016B0000020089000980199021C794802400021FE
:1016C00017B2059881B27748814201D300F002F841
:1016D00000F0AEF873490598814201DA00F029F86C
:1016E00000F000F80598814201D100F002F800F006
:1016F0001EF8089803B21A1CD2170098019CC01853
:101700005441011C00220020844201DA00F009F853
:1017100001DD00F008F8914201D200F002F800F07B
:1017200002F800F002F800F002F800F002F800F011
:101730002AF8282002F088F95B4E0699C8B20021E9
:101740003F2204F0EEFB041C0D1C30B2011CC91733
:10175000342204F0E6FB231C2A1C1B184A41029386
:1017600003920898002801D0002400E001240023FF
:1017700002980399021C121B994104980260049874
:10178000416000F0B6F80598002801DA00F002F890
:1017900000F04EF8454900200856012801D00022EB
:1017A00000E0012242490598884201DB002000E068
:1017B00001201043002801D000F018F800F000F8D4
:1017C000089803B21A1CD2170098019CC018544103
:1017D000011C231C00223748834201D000F001F88D
:1017E000914201D200F002F800F003F8012000F06D
:1017F00001F80020041C059841420AB26B46019989
:101800000098FEF7FEFE05980020059000980199CB
:10181000021C23480240002117B2381C2040002837
:1018200001D000F002F800F003F8042002F001F902
:10183000002F01D000F002F800F002F8FEF704FEDD
:10184000089802B2131CDB170098019980185941BF
:101850000A2204F094FB00900191391C0F4841408A
:10186000002901D0002200E0012207991140C9B2ED
:101870000020CA43C34300980199104019400090CA
:10188000019100990198084301D100F002F800F09D
:1018900014F8059800200FE0143F0020000200001B
:1018A000FF030000FD070000FF0700004C000020C0
:1018B000FFFFFFFF000000800590009F019E06993A
:1018C000C8B200213F2204F02CFB041C0D1C05991A
:1018D00008B2011CC917342204F023FB221C2B1C64
:1018E00012184B41191CD2197141049802600498D6
:1018F00041601BB0F0BDC046F0B58DB0C7B20DB2AF
:1019000003920493129E0398002801D100F002F87C
:1019100000F006F80498039000200490203D2DB2BA
:101920000398FFF733F940B20B3844B2002C01DBC7
:1019300000F002F800F00CF80020059004A80090D8
:1019400003AB22B204990398FEF71AFF00F00DF8DA
:1019500005A8029004A8019003A80090604203B279
:10196000049903980022FEF798FE20B22D1A2DB29A
:10197000019605980090049B039A281C01B2381C1C
:10198000C0B2FFF7A1FC0DB0F0BDF0B58DB0039073
:101990000298C8B2029017B212981399061C0D1C37
:1019A000301CFFF71FF940B2013844B2221C301C32
:1019B000291C04F0B6FA01910090381C001B02B2F9
:1019C0000398029BD9B2FFF72BFE0DB0F0BD0000CB
:1019D00010B590B0021C002A01D100F002F800F00E
:1019E00005F800240020044300F01EF8104882424D
:1019F00001D100F002F800F005F800240D4804437E
:101A000000F012F8002A01DB002000E0012000288D
:101A100001D000F002F800F001F852429C21C0B25F
:101A2000FFF7E2FB0000041C201C10B010BDC046F4
:101A300000000080000000CFF0B590B0061C0C1C28
:101A4000002C01D100F002F800F009F80096002304
:101A5000002200210020FFF724FC00F036F8002CC3
:101A600001DB002000E00120071C002F01D000F066
:101A700002F800F003F8604200F001F8201C051C99
:101A8000FFF784F840B20B3844B2002C01DB00F0C1
:101A900002F800F007F8281CA040019000200290F6
:101AA00000F009F802A80090604202B201AB0021E8
:101AB000281CFEF703FD00960548001B01B2029B9F
:101AC000019A381CC0B2FFF7ECFB10B0F0BDC04665
:101AD0001204000030B59AB0051C0A1C081C3949D4
:101AE00008400290101CC00DFF21084001B201A85F
:101AF0000180101CC00FC4B201A90020085EFF289D
:101B000001D100F002F800F021F80298002801D07D
:101B100000F002F800F011F805A8111CFFF7D4F846
:101B20000599069A079B08A8FFF76CF908A80168B1
:101B300040682960686000F043F80095224900235E
:101B40000022E0B2FFF7ADFB00F03AF801A8002157
:101B5000405E002801D100F002F800F01CF8029865
:101B6000002801D100F002F800F009F800950023E8
:101B700000220021E0B2FFF794FB00F021F802AA56
:101B800001A90298FFF71EFA01A80021405E013862
:101B900000B201A9088004A8009003AB02980322B8
:101BA0000021FEF78BFC009501A80021415E07484B
:101BB000091809B2049B039A201CC0B2FFF771FBFD
:101BC0001AB030BDFFFF7F00FF0700008003000058
:101BD000F0B5A2B00190029108980198089002997E
:101BE000274801400E1C0299090D264801400DB2FC
:101BF0000298C00FC7B22348854201D100F002F815
:101C000000F01EF808993143002901D000F002F8D5
:101C100000F00EF8029B019A05A8FFF7CBF8059893
:101C20000699079AFFF774F80000041C00F025F8E5
:101C3000391CC9071448091809000C1C00F01DF8CC
:101C400003A8009004AB16220899301CFEF76DFC27
:101C5000002D01D000F002F800F004F803980B49C1
:101C600008430390291C0A48091A09B2039A381C30
:101C7000C0B2FFF7B9F90000041C201C22B0F0BD6F
:101C8000FFFF0F00FF0700000000807F0000004002
:101C900081030000F0B5A5B003900491059206936E
:101CA0002AA90E9808780E902BA90F9808680F9013
:101CB0000398089004989749084007900499090DE3
:101CC000954801400FB205980A900698914908403E
:101CD00009900699090D904801400EB2381C801BEE
:101CE00005B2002D01DD00F002F800F040F88A484E
:101CF000874201D100F002F800F01BF8079908981C
:101D00000843002801D000F002F800F00AF80F980C
:101D10000090069B059A04990398FFF791F800F04C
:101D2000F5F80399049A0F9801600F98426000F04B
:101D3000EDF8002E01D100F002F800F004F8013DAA
:101D40002DB200F004F809987449084309900DA8D1
:101D500002900AA8019009A800900A9909982BB24C
:101D60000022FEF79AFC1098109700F095F8002DCD
:101D700001DA00F002F800F044F86748864201D129
:101D800000F002F800F01EF809990A9808430028AC
:101D900001D000F002F800F00AF80F980090069BBE
:101DA000059A04990398FFF74BF800F0AFF80F98E5
:101DB00000905949002300220E9CE0B2FFF771FA0F
:101DC00000F0A4F8002F01D100F002F800F004F8B0
:101DD00001352DB200F004F80798504908430790E8
:101DE0000DA8029008A8019007A80090684203B2CD
:101DF000089907980022FEF750FC1098109600F002
:101E00004BF84548874201D100F002F800F01FF876
:101E10000799089A0A43099911430A980843002828
:101E200001D000F002F800F00AF80F980090069B2D
:101E3000059A04990398FFF703F800F067F80399EF
:101E4000049A0F9801600F98426000F05FF80CA8A8
:101E500001900BA800900A9B099A08990798FEF731
:101E6000AAFC002F01D100F002F800F00BF80F9847
:101E700000900C9B0B9A00210E9CE0B2FFF711FA28
:101E800000F044F800200D900B98254908430B9072
:101E90001098109700F022F80798204908430790FF
:101EA0000CA801900BA800900A9B099A0899079822
:101EB000FEF781FC10980138109000B210900B9939
:101EC0001748814201D200F002F800F002F800F059
:101ED00011F810980130109000B210900DA80290E7
:101EE0000CA801900BA800900D9A0C990B98012357
:101EF000FEF7D3FB0F9801900D9800900C9B0B9A66
:101F0000109801B20E9CE0B2FFF7DEF925B0F0BDEB
:101F100008E0C046FFFF0F00FF07000000001000B0
:101F200000002000F0B5A5B0029003910492059343
:101F30002AA90E9808780E902BA90F9808680F9080
:101F40000298079003989B49084006900399090D51
:101F5000994801400FB204980990059895490840A6
:101F600008900599090D944801400EB2381C801B59
:101F700005B207A8009006AB079906980A22FEF75B
:101F8000FFFB09A8009008AB099908980A22FEF700
:101F9000F7FB002D01DD00F002F800F002F800F080
:101FA000CBF8002D01DA00F002F800F002F800F0A2
:101FB0006FF88148874201D100F002F800F027F85D
:101FC0000699079A0A43089911430998084300287B
:101FD00001D000F002F800F00AF80F980090059B7D
:101FE000049A03990298FEF72BFF00F008F90020ED
:101FF00001F01FFD00200C9070480D900CA80268A5
:1020000041680F9802600F98416000F0F8F8002FC7
:1020100001D100F002F800F002F80127012608992A
:102020000698814201D200F002F800F002F800F0B8
:10203000BFF806990898814201D200F002F800F03A
:1020400002F800F067F809990798814201D200F080
:1020500002F800F002F800F0ABF807990998814205
:1020600001D200F002F800F002F800F053F80F98E7
:10207000009053480068012801D0002000E00120B2
:10208000C0B2002300220021FFF70BF900F0B7F8DF
:102090004948864201D100F002F800F020F8089982
:1020A00009980843002801D000F002F800F00AF86F
:1020B0000F980090059B049A03990298FEF7C0FEC2
:1020C00000F09DF80F9800900E9901204140C8B291
:1020D000394900230022FFF7E4F800F090F8002FC0
:1020E00001D100F002F800F004F801352DB200F043
:1020F00004F8069833490843069007A80090684200
:1021000002B206AB07990698FEF70FFA08982D4918
:10211000084308900BA801900AA80090079B069A14
:1021200009990898FEF798FB1098109601210E98CF
:1021300048400E9000F053F81F48874201D100F04C
:1021400002F800F01BF8069907980843002801D010
:1021500000F002F800F00AF80F980090059B049A2E
:1021600003990298FEF76CFE00F049F80299039A71
:102170000F9801600F98426000F041F8002E01D1E5
:1021800000F002F800F004F8013D2DB200F004F870
:1021900008980C490843089009A8009008AB0999D1
:1021A00008982AB2FEF7C1F9069806490843069036
:1021B0000BA809E0FFFF0F00FF0700000000F8FF79
:1021C000143F00200000004001900AA80090099BE5
:1021D000089A07990698FEF73FFB109810971098F9
:1021E0000138109000B210900F98009010990A39A1
:1021F00009B20B9B0A9A0E9CE0B2FFF77DFB25B05B
:10220000F0BDC04630B58FB0051C0292039312A8F2
:1022100001684068049105900398C00FC4B2059806
:10222000C00FC0B2844201D100F002F800F00BF8F8
:10223000684604700195059B049A03990298FFF77C
:1022400029FD00F009F8684604700195059B049A81
:1022500003990298FFF766FE0FB030BD30B58FB01E
:10226000051C0292039312A801684068049105902E
:102270000398C00FC4B20598C00FC0B2844201D108
:1022800000F002F800F00BF8684604700195059B19
:10229000049A03990298FFF745FE00F009F8684692
:1022A00004700195059B049A03990298FFF7F2FCCC
:1022B0000FB030BDF0B5A9B01490049205932EA8CC
:1022C000016840680691079004980B90059895491D
:1022D00008400A900599090D9348014009B208A8E1
:1022E00001800598C00FC7B206980D9007988D49D8
:1022F00008400C900799090D8B48014009B209A8C4
:1023000001800798C00FC5B2281C7840041C08A99A
:102310000020095E8448814201D100F002F800F0FB
:1023200043F80A990B980843002801D000F019F8E7
:1023300000F000F809A90020095E7B48814201D124
:1023400000F002F800F00BF80C990D9808430028F3
:1023500001D000F002F800F002F800F002F800F0FE
:102360000AF814990091079B069A05990498FEF7BC
:1023700067FD00F017F909A90020095E0C9A0A43CD
:102380000D981043002801D100F002F800F002F887
:1023900000F03DF814990091634900230022E0B257
:1023A000FEF77FFF00F0FEF809A90020095E5E48F5
:1023B000814201D100F002F800F043F80C990D9829
:1023C0000843002801D000F002F800F00AF8149940
:1023D0000091079B069A05990498FEF731FD00F0DD
:1023E000E1F808A90020085E021CD2170A99002310
:1023F000061C0E431A430B980021331C03430A4367
:10240000101C184301D100F002F800F010F8002071
:1024100001F00FFB002012904448139012A80268AC
:102420004168149802601498416000F0BBF8149958
:1024300000913D4900230022E0B2FEF732FF00F098
:10244000B1F808A80021405E002801D100F002F890
:1024500000F01BF80A990B980843002801D100F0FE
:1024600002F800F00AF814990091002300220021DC
:10247000E0B2FEF716FF00F095F80BA800900AAB4B
:1024800008AA0B990A98FEF7C5FE09A80021405E2C
:10249000002801D100F002F800F01BF80C990D980B
:1024A0000843002801D100F002F800F00AF814995E
:1024B0000091002300220021E0B2FEF7F2FE00F0BE
:1024C00071F80DA800900CAB09AA0D990C98FEF7B5
:1024D000A1FE08A900200A5E09A80021405E80181C
:1024E000011C1348091A09B2159815910A98114947
:1024F00008430A900DA800900CAB0D990C980C2283
:10250000FEF73EF911A8039010A802900FA80190C1
:102510000EA800900D9B0C9A0B990A98FEF753FA9F
:102520000FA809E0FFFF0F00FF0700000000F8FF01
:10253000000400000000100001900EA800900B9B0A
:102540000A9A0F990E98FEF736F91198002801D1D2
:10255000002100E001211098084310900E991248C4
:10256000814201D300F002F800F011F810A80290A7
:102570000FA801900EA80090109A0F990E980123B1
:10258000FEF78BF815980130159000B2159014994C
:102590000191109800900F9B0E9A159801B2E0B22D
:1025A000FEF792FE29B0F0BD00002000F0B5B3B0F8
:1025B0001C900592069338A801684068079108901E
:1025C00005980C900698974908400B900699090DBC
:1025D0009548014009B209A801800698C00FC6B20B
:1025E00007980E9008988F4908400D900899090D9A
:1025F0008D48014009B20AA801800898C00FC5B2F1
:10260000281C7040041C09A90020095E86488142EC
:1026100001D100F002F800F03CF80B990C98084347
:10262000002801D000F002F800F00AF81C9900918F
:10263000089B079A06990598FEF702FC00F09EF9A0
:102640000AA90020095E7848814201D100F002F811
:1026500000F015F80D990E980843002801D000F0FD
:1026600002F800F00AF81C990091089B079A069955
:102670000598FEF7E5FB00F081F900F050F81C9991
:102680000091694900230022E0B2FEF70AFE00F043
:1026900075F90AA90020095E6348814201D100F062
:1026A00002F800F01DF80D990E980843002801D09B
:1026B00000F002F800F00AF81C990091089B079AB4
:1026C00006990598FEF7BCFB00F058F91C9900919B
:1026D000002300220021E0B2FEF7E3FD00F04EF9F6
:1026E0000AA90020085E002801D100F002F800F0DD
:1026F0003BF80D990E980843002801D100F002F82C
:1027000000F02AF809A90020095E0B9A0A430C98E8
:102710001043002801D100F002F800F010F800206A
:1027200001F087F900201A9040481B901AA802680F
:1027300041681C9802601C98416000F01FF902205B
:1027400001F077F91C990091374900230022E0B28B
:10275000FEF7A7FD00F012F90EA800900DAB0AAA33
:102760000E990D98FEF756FD09A90020085E002875
:1027700001D100F002F800F01BF80B990C98084307
:10278000002801D100F002F800F00AF81C9900912D
:10279000002300220021E0B2FEF783FD00F0EEF8F6
:1027A0000CA800900BAB09AA0C990B98FEF732FD10
:1027B00009A900200A5E0AA90020085E111C091A56
:1027C0001B4809180FB20CA800900B981949084330
:1027D0000BAB0C990B22FDF7D3FF0EA800900D98C0
:1027E000144908430DAB0E990B22FDF7C9FF0C9B52
:1027F0000B9A0E990D98FEF719FAC0B2002801D075
:1028000000F002F800F00AF80CA800900BAB0C994D
:102810000B980122FDF752FE01373FB20D9A0C9939
:102820000AE0C046FFFF0F00FF0700000000F8FFAE
:10283000FD030000000010000B98FEF729F90F902F
:1028400018A8019017A8009016AB0F9A0E990D9832
:10285000FEF78FF814A8049013A8039012A8029012
:102860001898019017980090169B0C990B980022CD
:10287000FEF70BF800F013F80F9801380F9014A82A
:10288000049013A8039012A802900E9801900D983E
:102890000090149A139912980023FDF79CFF129848
:1028A000002801DAFFF7E8FF00F000F80D9A14990C
:1028B0001398FEF7EDF81090011C314801400429EF
:1028C00001D800F002F800F043F819A8019018A808
:1028D000009017AB109A0E990D98FEF74AF815A8BC
:1028E000049014A8039013A80290199801901898C6
:1028F0000090179B149913980022FDF7C6FF00F073
:1029000013F810980138109015A8049014A803909B
:1029100013A802900E9801900D980090159A1499A2
:1029200013980023FDF757FF1398002801DAFFF7EB
:10293000E8FF00F000F81399149A0A431598104321
:10294000002801D1002100E00121109808431090D7
:1029500011A8029010A801900FA8009010990F984C
:102960000B230022FDF799FE1C990191119800900C
:10297000109B0F9A39B2E0B2FEF7A6FC33B0F0BD5F
:10298000FF03000010B5A4B00090019102920393E0
:102990000198011C090D394A131C0B401BB2374921
:1029A0008B4201D100F002F800F00BF8031C344810
:1029B000034000981843002801D000F01CF800F0F4
:1029C00000F80398031C1B0D1A4012B28A4201D171
:1029D00000F002F800F00DF8011C294801400298AF
:1029E0000843002801D000F002F800F002F800F0DF
:1029F00002F800F01CF801990098FEF7BFF9C0B288
:102A0000002801D000F00DF800F000F803990298BA
:102A1000FEF7B4F9C0B2002801D000F002F800F0CF
:102A200003F8002001F005F8002400F024F8009AD3
:102A30000298824201D100F002F800F01AF80199E0
:102A40000398814201D100F00DF800F000F8031C5A
:102A50000B435B00101C1843002801D100F002F862
:102A600000F002F800F002F800F003F8012000F096
:102A700001F80020041CE0B224B010BDFF070000E4
:102A8000FFFF0F0070B590B0061C151C1C1C181C15
:102A9000284301D100F002F800F006F80020306071
:102AA0000020706000F03FF800212048844201D0EF
:102AB00000F001F88D4201D100F002F800F010F8AA
:102AC0001B4800B2011CC917342203F02AFA021C69
:102AD000081C0032154948413260706000F023F84C
:102AE000002000218C4201DA00F009F801DD00F03D
:102AF00013F8854201D200F002F800F00DF8002131
:102B00000020491BA041019000910A4A301C01217C
:102B1000FEF73BFF00F007F801940095054A301CD2
:102B20000021FEF732FF10B070BDC04600000080EB
:102B30003E0400003C04000000B58AB00168013981
:102B40000160081C0AB000BD00B58AB001680131FF
:102B50000160081C0AB000BD00B58CB0D2B200F014
:102B6000EBF80CB000BD00B58CB0D2B200F0E4F8C8
:102B70000CB000BD00B58CB0D2B200F089F90CB039
:102B800000BD00B58CB000F01FFA0CB000BDF0B570
:102B900090B000920B1C021C934201D0002300E075
:102BA0000123009A002A01DD002200E001221A43DD
:102BB000002A01D000F002F800F002F800F0BAF8A4
:102BC0000D1C041CA54201D200F00AF800F000F828
:102BD000009B1B19AB4201D200F002F800F053F841
:102BE000071C0E1C009A052A01DD00F002F800F017
:102BF00039F8321C03231A403B1C032423409A4219
:102C000001D100F002F800F02DF804239B1B0322F1
:102C10001340009AD21A00921A1CD219151C00F007
:102C200004F83A78327001360137AF4201D2FFF72B
:102C3000F8FF00F000F8009CA408221C92003C1C45
:102C4000A418251C00F004F83A68326004360437F2
:102C5000AF4201D2FFF7F8FF00F000F80324009A1A
:102C600022400092009CE419251C00F004F83A78F8
:102C7000327001360137AF4201D2FFF7F8FF00F0A2
:102C800000F800F057F8021C009CA418271C0A1C2E
:102C9000009989180E1C0098052801DD00F002F843
:102CA00000F038F8321C03200240391C0320014098
:102CB0008A4201D100F002F800F02CF8311C032008
:102CC00001400B1C0098C01A0090381CC01A051C4B
:102CD00000F004F8013E013F38783070AF4201D96E
:102CE000FFF7F8FF00F000F8009989088900381C08
:102CF000401A051C00F004F8043E043F38683060B8
:102D0000AF4201D9FFF7F8FF00F000F80321009867
:102D100008400090391C0098091A0D1C00F004F8B6
:102D2000013E013F38783070AF4201D9FFF7F8FF1C
:102D300000F000F810B0F0BDF0B594B0D7B20029A3
:102D400001DC00F002F800F002F800F050F8021C7C
:102D50000F2901DD00F002F800F03DF8381C3B1CA3
:102D60001B021843031C1B0418430323141CE41800
:102D7000261C1C1C04252C40002C01D100F002F85C
:102D800000F004F8DB43334000F006F8341C032560
:102D90002C40351C2D1B2B1C1C1CA41A091B00F0DD
:102DA00002F8177001329A4201D2FFF7FAFF00F0E1
:102DB00000F80C1CA408A400151C2D192B1C00F0F5
:102DC00002F8106004329A4201D2FFF7FAFF00F0D5
:102DD00000F803200140081C801800F002F817706A
:102DE0000132824201D2FFF7FAFF00F000F814B07E
:102DF000F0BD70B590B093B2002901DC00F002F88C
:102E000000F002F800F041F8021C0F2901DD00F08B
:102E100002F800F02DF8181C1C1C24042043141C7C
:102E200003252C406408091B6400151C2D1900F0B3
:102E300002F813800232AA4201D2FFF7FAFF00F033
:102E400000F80C1C6400A408A400161C3619351CDC
:102E500000F002F810600432AA4201D2FFF7FAFF34
:102E600000F000F8081C4000032420404008011C2A
:102E70004900101C401800F002F813800232824210
:102E800001D2FFF7FAFF00F000F810B070BD0000AB
:102E900070B58EB0D5B2041C002901DA00F00AF832
:102EA00000F000F80A1C1219A24201D200F002F848
:102EB00000F003F80F4B00F002F809190B1C00F0AA
:102EC0000EF82178A94201D100F002F800F006F8CE
:102ED000011C261C761A321C00F008F801349C42B2
:102EE00001D2FFF7EEFF00F000F8034A101C0EB00D
:102EF00070BDC046FEFFFFFFFFFFFFFF70B58EB045
:102F000094B2061C002901DA00F00CF800F000F879
:102F10000A1C5200331C9B18B34201D200F002F885
:102F200000F003F8264D00F004F84900321C521856
:102F3000151C311C01221140002901D000F002F8BB
:102F400000F01FF800F015F83278717809020A4392
:102F5000A24201D100F002F800F00AF8011C321C74
:102F6000521A111CC90F511849100B1C00F024F8FB
:102F70000236AE4201D2FFF7E7FF00F000F800F0A2
:102F80001AF800F012F83188A14201D100F002F8DD
:102F900000F00AF8011C321C521A111CC90F5118FA
:102FA00049100B1C00F008F80236AE4201D2FFF7C0
:102FB000EAFF00F000F8034B181C0EB070BDC046CD
:102FC000FDFFFFFFFFFFFFFFF0B590B0141C0025D1
:102FD000071C0E1C0F2C01DD00F002F800F057F862
:102FE000301C03210840391C03221140884201D1C2
:102FF00000F002F800F04BF8311C032001400420DF
:10300000401A03210840241AC019021C00F01AF8C3
:1030100038783178401A051C002D01D000F002F8F4
:1030200000F00EF8002D01DA00F002F800F005F8CB
:10303000314B00F05DF800F003F8012300F058F880
:1030400001360137974201D2FFF7E2FF00F000F8A6
:10305000201C80088000391C09180A1C0320044029
:1030600000F00FF838683168401A051C002D01D0B7
:1030700000F002F800F003F8042400F008F8043629
:103080000437974201D2FFF7EDFF00F000F8201C53
:10309000C019B84201D300F002F800F005F8201C76
:1030A000C019021C00F001F8144A00F01AF8387830
:1030B0003178401A051C002D01D000F002F800F014
:1030C0000EF8002D01DA00F002F800F005F80A4BC6
:1030D00000F00EF800F003F8012300F009F80136C3
:1030E0000137974201D2FFF7E2FF00F000F800231A
:1030F000181C10B0F0BDC046FFFFFFFFFEFFFFFF32
:10310000F0B592B0151C0027009A00900E1C0F2DF0
:1031100001DD00F002F800F07BF8321C03200240D1
:103120000099032001408A4201D100F002F800F02A
:103130006FF8321C01200240009901200140114328
:10314000002901D100F002F800F062F8321C0320DF
:103150000240002304200021801A994103221040DC
:103160000021012202F067FF2D1A4000009A121878
:10317000131C00F01DF8009801883088091A0F1CF4
:10318000002F01D000F002F800F00EF8002F01DA55
:1031900000F002F800F005F85B4C00F0B1F800F028
:1031A00003F8012400F0ACF80236009802300090D9
:1031B0000098984201D2FFF7DEFF00F000F8281CCB
:1031C00040008008011C8900009A5218131C281C1A
:1031D0004000032108404008051C00F012F8009848
:1031E00001683068091A0F1C002F01D000F002F8A6
:1031F00000F003F8022500F00BF8043600980430C4
:1032000000900098984201D2FFF7E9FF00F000F823
:103210002A1C5200009989180098814201D300F0BD
:1032200002F800F007F8291C4900009A5218131CF4
:1032300000F001F8354B311C01200140009A0120BB
:103240000240101C0843002801D000F002F800F0F2
:1032500030F800F025F800980278009841780902CB
:103260000A433178707800020143101C401A071C91
:10327000002F01D000F002F800F00EF8002F01DA64
:1032800000F002F800F005F81F4C00F039F800F0EB
:1032900003F8012400F034F8023600980230009060
:1032A0000098984201D2FFF7D6FF00F000F800F036
:1032B00026F800F01DF8009801883088091A0F1CC4
:1032C000002F01D000F002F800F00EF8002F01DA14
:1032D00000F002F800F005F80B4C00F011F800F0D7
:1032E00003F8012400F00CF8023600980230009038
:1032F0000098984201D2FFF7DEFF00F000F80024AA
:10330000201C12B0F0BDC046FFFFFFFFFDFFFFFF16
:1033100030B5CCB0051C101C04788C4201DD00F0E7
:1033200002F800F001F8CCB2221C0132291CFFF790
:103330002EFC2C704CB030BDF0B5FFB08FB00090BB
:10334000141C1F1C26783D78281C8019884201DD3A
:1033500000F002F800F00AF88E4201DD00F002F8F9
:1033600000F001F80E1C081C801B051C0099201C95
:10337000814201D100F002F800F00DF8301C01305C
:10338000C1B2EAB2381C0130C9B2009BC918FFF7BC
:10339000FEFB00F02EF80099381C814201D100F0AC
:1033A00002F800F014F8301C0130C3B2EAB2009801
:1033B0000130D9B2009BC918FFF7E9FBF2B20099BE
:1033C0000131201C0130FFF7E2FB00F012F8F2B2ED
:1033D00000990131201C0130FFF7D9FB301C01306E
:1033E000C1B2EAB2381C0130C9B2009BC918FFF75C
:1033F000CEFB281C8019C1B2009801707FB00FB0BD
:10340000F0BD30B5FFB08BB0051C0B1C28781978C7
:10341000401A041C002C01D100F002F800F008F85A
:103420002A78191C0131281C0130FFF7CDFD041C3E
:10343000201C7FB00BB030BD00B58CB0002801D08F
:1034400000F002F800F006F804490022FFF720FD22
:1034500000F001F800200CB000BDC046FFFFFF7F68
:10346000F0B592B0051C0C1C0027002D01D100F016
:1034700002F800F007F807F041FC011C0022C82008
:1034800007F0DCFC002C01D100F002F800F002F89B
:1034900000F02FF8261C201C00F096FA041C281CB3
:1034A00000F092FAA04201DD00F002F800F002F80C
:1034B00000F01FF8211C091A281C8840002901DB94
:1034C00000F002F800F015F801310139864201D30D
:1034D00000F002F800F004F8361A01228A40BF1802
:1034E000021C5208101C002901DC00F002F8FFF752
:1034F000ECFF381C12B0F0BDF0B592B0051C0C1CEE
:103500000027002D01D100F002F800F007F807F0C5
:10351000F5FB011C0022C82007F090FC002C01D113
:1035200000F002F800F002F800F02EF8261C201C33
:1035300000F04AFA041C281C00F046FAA04201DD03
:1035400000F002F800F003F8371C00F01DF8211C11
:10355000091A281C8840002901DB00F002F800F05D
:1035600012F801310139864201D300F002F800F06F
:1035700001F8361A021C5208101C002901DC00F068
:1035800002F8FFF7EFFF371C381C12B0F0BDF0B5A2
:1035900092B0061C0C1C002E01D100F002F800F0C5
:1035A00007F807F0ABFB011C0022C82007F046FC1F
:1035B0000021002C01DA00F002F800F009F80029DF
:1035C00001D0002100E001216042071C00F001F859
:1035D000271C002E01DA00F002F800F009F800299B
:1035E00001D0002100E001217042051C00F001F82B
:1035F000351C002901D000F002F800F008F8391C51
:10360000281CFFF72DFF4042041C00F005F8391C70
:10361000281CFFF725FF041C201C12B0F0BD30B59C
:1036200092B0041C0D1C002C01D100F002F800F037
:1036300007F807F063FB011C0022C82007F0FEFB1F
:10364000211CC917081C6040401A002D01DA00F047
:1036500002F800F004F86942012400F002F8291C85
:103660000024FFF749FF011C002C01D000F002F8F4
:1036700000F003F8484200F001F8081C12B030BD19
:1036800000B58AB0016801390160081C002801D02A
:10369000002000E00120C0B20AB000BD00B58AB031
:1036A000011C0868013008600AB000BDF0B59CB08C
:1036B00009910C92099A01320B990B920A990B9974
:1036C0000A91002801DA00F002F800F00AF82D2231
:1036D0000A990A700A9901310A9141420D1C00F0C1
:1036E00001F8051C6E46371C291C0A20FFF7B8FE9E
:1036F000041C0137201C0A214843291C091A081CF4
:1037000030303870251C002D01D100F002F8FFF791
:10371000EBFF391C891B0A9A0B98121A5218111CBC
:103720000C98091A002901DD00F002F800F001F8F8
:10373000761800F007F839780A9801700A98013075
:103740000A90013FB74201D9FFF7F5FF00F000F8FA
:103750000A990B98091AC9B2099801701CB0F0BDFA
:10376000F0B59CB0051C0991171C099901310C9802
:103770000C910A980C980A906E460B980B960B9831
:1037800001300B90291C0A20FFF76AFE041C0A2155
:103790004843291C091A081C3030C1B20B9801702B
:1037A000251C002D01D100F002F8FFF7E8FF0B996E
:1037B000891BC91B002901DD00F002F800F001F8A7
:1037C000761800F00AF80B9801780A9801700A98A8
:1037D00001300A900B9801380B900B98B04201D938
:1037E000FFF7F1FF00F000F80A990C98091AC9B226
:1037F000099801701CB0F0BDF0B5A2B009920C930D
:10380000099B01330B9A0B930A9A0B9A0A92002395
:103810000022914201DA00F009F801DD00F014F80D
:10382000984201D200F002F800F00EF82D230A9A17
:1038300013700A9A01320A92002300221B1A8A414D
:103840001F1C161C00F002F8071C0E1C69460E987F
:103850000E910D980E980D90331C3A1C00210A20F1
:1038600002F018FC051C0C1C0D9801300D90002373
:103870000A22211C281C02F0CDFD3B1C321C1B1A05
:103880008A41191C101C303100225041C9B20D98D8
:1038900001702F1C261C201C384301D100F002F8B7
:1038A000FFF7DAFF0D990E98091A0A9A0B98121A67
:1038B0005218111C0C98091A002901DD00F002F8B9
:1038C00000F003F80E9840180E9000F00AF80D98DA
:1038D00001780A9801700A9801300A900D98013811
:1038E0000D900D980E99884201D9FFF7F0FF00F076
:1038F00000F80A990B98091AC9B20998017022B008
:10390000F0BDF0B5A8B0071C0E1C119215931199CB
:1039100001311498149112981498129069461698CF
:103920001691139816981390139801301390331C26
:103930003A1C00210A2002F0ADFB051C0C1C0023E0
:103940000A22211C281C02F065FD3B1C321C1B1A9C
:103950008A41191C101C303100225041C9B2139801
:1039600001702F1C261C201C384301D100F002F8E6
:10397000FFF7DAFF13991698091A1598091A002902
:1039800001DD00F002F800F003F8169840181690D8
:1039900000F00AF81398017812980170129801301B
:1039A000129013980138139013981699884201D9F0
:1039B000FFF7F0FF00F000F812991498091AC9B245
:1039C0001198017028B0F0BD00B58CB0011C0C48F6
:1039D000814201D8002000E001200001C140FF2900
:1039E00001D8002200E00122D2001043021C08236B
:1039F0001A40D140C9B2034A895C08430CB000BDEB
:103A0000FFFF00005801002030B58CB00D1C141CC5
:103A10001A1C291CFFF7BBF8221C211CC90809002D
:103A200007200240685C01239340184368540CB09F
:103A300030BD00B58AB0011C002001228A4010432D
:103A400000F002F80AB000BD10B58CB0304A116821
:103A50000143101C116001682E480068C0430840F3
:103A6000041C00212A4801600020012181400C42F1
:103A700001D000F002F800F005F8CF2007F0F5F9CA
:103A800000F044F80220012181400C4201D000F0F6
:103A900002F800F005F8D02007F0E7F900F036F85A
:103AA0000320012181400C4201D000F002F800F017
:103AB00005F8CD2007F0D9F900F028F804200121FD
:103AC00081400C4201D000F002F800F005F8CE2051
:103AD00007F0CBF900F01AF80520012181400C42D3
:103AE00001D000F002F800F005F8CF2007F0BDF992
:103AF00000F00CF80120012181400C4201D000F0BF
:103B000002F800F003F8D82007F0AFF90CB010BDB0
:103B1000103F00200C3F002000B58CB000900191B8
:103B20000120C0B20CB000BDF0B59AB00090019178
:103B300000990198029103904C49084000212022ED
:103B400002F04BFA029B002218431143049A04909E
:103B5000059805910399090D4548014009B2069859
:103B60000691081C002801D000F002F800F008F8C7
:103B700000210498084304903E49059808430590A5
:103B800006993D48091A0EB2002E01DB00F002F83A
:103B900000F043F839490698884201DB00F002F84A
:103BA00000F032F836483749FFF7B6FF039800288F
:103BB00001DB00F01DF800F000F82D49069888425E
:103BC00001D0002300E0012300222A490598884201
:103BD00001D000F002F80498904201D1002000E0EA
:103BE00001201840002801D000F002F800F006F88B
:103BF000079825480790254F00F034F807980020D3
:103C00000790234F00F02EF8321C0599049802F01B
:103C1000E4F9051C0C1C00F015F81E4906988842B2
:103C200001DA00F002F800F006F80798002007908B
:103C3000002700F017F872420599049802F0FBF98A
:103C4000051C0C1C0398002801DA00F002F800F0B3
:103C500004F8002500246D1BA441291C221C079890
:103C60000791171C391C07981AB0F0BDFFFF0F0011
:103C7000FF07000000001000330400003E040000B5
:103C8000000000000000F03FFFFFFFFFFFFFFF7F8D
:103C900000000080FE030000F0B5ACB0029003917C
:103CA0000A1C120D504802405048121A171C0A1CD8
:103CB000D20F089808924E4801404E4801430C1C10
:103CC000342F01DB00F002F800F021F83F2F01DB78
:103CD00000F002F800F00AF802980399FFF724FFB9
:103CE000061C0D1C00F07BF800F00FF8201C0021D2
:103CF000202202F072F9029B0022184311433A1C61
:103D0000343A02F06AF9061C0D1C00F05DF80398C5
:103D10000190029800900899C90037480B5837481D
:103D20000A5806A8FEF76EFA06A8016840680491D2
:103D300005900899C9003048085801902F48085844
:103D40000090059B049A06A8FEF788FA06A8016869
:103D5000406802910390041C011C090D2248014097
:103D60002248091A0F1C211C214801402148014307
:103D70000C1C142F01DC00F002F800F015F8002FE5
:103D800001DA00F002F800F006F80026002500F045
:103D900026F800F007F81421C91B201CC840002198
:103DA000061C0D1C00F010F83A1C143A201C0021CF
:103DB00002F013F93423DB1B029ADA40131CDB17E1
:103DC00010431943061C0D1C0898002801D000F070
:103DD00002F800F004F800260025B61BAD41291CAE
:103DE000301C2CB0F0BDC046FF070000FF030000F0
:103DF000FFFF0F00000010005C02002058020020AE
:103E000000B58CB0031CFF2A01DD00F002F800F0C1
:103E100001F8FF221A700CB000BD30B5CCB0041C04
:103E20000D1C002B01DA00F002F800F001F800236D
:103E3000012A01DD00F002F800F003F8013A00F079
:103E400001F800222878904201DA00F002F800F030
:103E500003F8002300F00BF82878801A984201DA62
:103E600000F002F800F003F82878801A031C237091
:103E7000101C0130C0B2DAB2211C0131C0B24019AD
:103E8000FEF785FE4CB030BD00B58AB0C0B2C1B2FD
:103E900061391A2901D200F002F800F005F8011C7E
:103EA0002039C9B200F001F8011CC8B20AB000BD47
:103EB000F0B58BB0071C151C1E1C10A800783870BC
:103EC000012801DB00F002F800F017F80130041CB3
:103ED000013C2A1C0F200240E1B20948105C7854D2
:103EE0000422311C281C02F0A6F8051C0E1C012C13
:103EF00001DC00F002F8FFF7EBFF0BB0F0BDC046AD
:103F00006802002010B58CB00EA90C7869460C70C0
:103F1000FFF7CEFF0CB010BD30B58CB0041C0820EC
:103F2000207008250B1C0F200340EAB20748185CDC
:103F3000A054081C0009011C013D012D01DA00F00C
:103F400002F8FFF7EFFF0CB030BDC046680200205A
:103F500000B58AB0C9B2017001302022FEF7FCFD25
:103F60000AB000BD70B5FFB08DB00C1C161C111C42
:103F70001D1C1A1CFFF79AFB3078A04201DA00F0F2
:103F800002F800F012F83078211C091AC9B240A8D2
:103F9000FFF7DEFF40AA331C6846FF21FFF7CCF98C
:103FA0006A46301C291CFFF7B3F97FB00DB070BD15
:103FB00070B5FFB08DB00C1C161C111C1D1C1A1CFA
:103FC000FFF7CEFB3078A04201DA00F002F800F0F3
:103FD00012F83078211C091AC9B240A8FFF7B8FFBF
:103FE00040AA331C6846FF21FFF7A6F96A46301C39
:103FF000291CFFF78DF97FB00DB070BD70B5FFB013
:104000008BB0141C1E1C8EAA1368321C1D1CFFF7DB
:1040100078FC3078A04201DA00F002F800F012F8E3
:104020003078211C091AC9B240A8FFF791FF40AAB5
:10403000331C6846FF21FFF77FF96A46301C291CB4
:10404000FFF766F97FB00BB070BD70B5FFB08BB0F5
:10405000141C1E1C8EAA1368321C1D1CFFF7CCFBFF
:104060003078A04201DA00F002F800F012F830785F
:10407000211C091AC9B240A8FFF76AFF40AA331CE5
:104080006846FF21FFF758F96A46301C291CFFF7E4
:104090003FF97FB00BB070BDF0B5D6B00090039182
:1040A00002920198D8B2019003984168039A10686F
:1040B000202201F064FF051C03980A9901680A9107
:1040C00002984168029A1068202201F058FF029974
:1040D0000F68041C011C2E1C281C02F0D3F9049A42
:1040E000049005980591211C0A9D281C02F0CAF92C
:1040F000079A0790069806913C1C391C301C02F068
:10410000C1F9099A099008980891211C281C02F00D
:10411000B9F9202201F033FF00253549401800216C
:104120004D41079C0023099A0021A4184B41291CEA
:1041300000195941071C0E1C20220998089901F00A
:104140001EFF0022049D059C2D1854412022079833
:10415000069901F014FF00212D184C412022381C33
:10416000311C01F00CFF00232A1C211C121859419C
:1041700000980260009841600399083100200A5EAF
:10418000029908310020085E8018403001B2009882
:1041900001810198002801D000F002F800F025F814
:1041A00000984168009A1068202201F0E8FE10494A
:1041B0000840002801D100F002F800F016F800983D
:1041C00004680098436800980168009842680919DB
:1041D0005A4100980160009842600099083100201F
:1041E000095E013909B20098018156B0F0BDC046A0
:1041F00000000080F0B59EB006B20A918C49002004
:104200000A5E8C490020085E801804B2A64201DCD8
:1042100000F002F800F003F8002500F01AF8311C55
:10422000091B1220FFF7B3F905B2281C12214843DD
:10423000211C0918B14201D000F002F800F002F888
:1042400001352DB2312D01DD00F002F800F001F84A
:1042500031252C1C291C0A20FFF7E1F907B20B9825
:104260000B94211C0A20FFF792F9023801B20C9836
:104270000C91081C002801D100F002F800F019F898
:10428000B9B2182041436C4E761831687268B36831
:10429000F46835690A9801600A9842600A98836058
:1042A0000A98C4600A98056171690A98416100F032
:1042B000DAF8B9B2182041435F4D6D182C686B686D
:1042C000AA68E96828690094019302920391049016
:1042D000686905900C98002801DD00F002F800F0F4
:1042E0004CF80C9801380C9000B20C9082B2182057
:1042F00042435249891800200A5E04A90020085E42
:10430000801801B20A98018204A90020085E0028E2
:1043100001D000F002F800F01AF80C9880B21821D1
:104320004843474A1218694606A80123FFF7B4FE1E
:1043300006A8016842688468C3680A9801600A9800
:1043400042600A9884600A98C36000F014F80C98E0
:1043500081B2182041433A48401801684268846895
:10436000C3680A9801600A9842600A9884600A98B3
:10437000C36000F078F800F04CF80C990131484225
:1043800001B20C980C91081C82B2182042432D49AE
:10439000891800200A5E04A90020085E801801B276
:1043A0000A98018204A90020085E002801D000F0CC
:1043B00002F800F01AF80C9880B218214843224AFB
:1043C0001218694606A80123FFF766FE06A80168D1
:1043D00042688468C3680A9801600A9842600A9833
:1043E00084600A98C36000F014F80C9881B2182019
:1043F000414315484018016842688468C3680A98B8
:1044000001600A9842600A9884600A98C36000F0CC
:104410002AF80B9882B20D49891800200856002806
:1044200001D000F002F800F01EF844B2231C0FE0A7
:10443000AC020020E40300209C0200209C0300202A
:104440008C030020CC030020BC030020EC030020E0
:10445000DB170A9801680A98426809195A410A98B4
:1044600001600A9842601EB0F0BDC046F0B5DFB0F2
:10447000289800B228902B9808B22B9006920793A8
:1044800064A8056865A926980868269066A92798F3
:10449000086827902B98D82801DD00F002F800F07A
:1044A00003F82B98D8202B9091492898884201DC5A
:1044B00000F002F800F005F828988E48289000F0E7
:1044C00016F82898002801DA00F002F800F005F844
:1044D00028980020289000F00AF82898FF2801DD8D
:1044E00000F002F800F003F82898FF2028902A1C1A
:1044F00092008149891800200B5E291C89007F4A9F
:10450000521800212998505E29907D4A00212C984C
:10451000505E2C90834201DA00F002F800F002F8BD
:104520002C982C932898002801DA00F002F800F06B
:1045300004F82A982A9300F01DF8289901390139C6
:10454000013901392998091A09B22A982A91081CB7
:10455000022801DA00F002F800F003F82A9802209D
:104560002A902A98984201DD00F002F800F002F843
:104570002A982A9306980799021C081C614908404A
:10458000229223900798000D011C5F48014009B258
:1045900024A801800798C00FC0B2002801D10020D4
:1045A00000E0012017A9087022A804684368826807
:1045B000C16808A8046043608260C1600AA9002045
:1045C000085E002801D100F002F800F048F80899D0
:1045D0000998084301D100F002F800F040F80021EA
:1045E00018A801702B98002801DB00F002F800F0F9
:1045F0001DF804A92B98088003A928980880012198
:1046000002A80180002101A8018018A8009017A825
:1046100003782699279A00F07FFCC0B2002801D0C9
:1046200000F002F800F002F800F098FA05A92898C6
:10463000088004A929980880002103A8018002A904
:104640002A980880002101A8018018A8009017A8C6
:1046500003782699279A00F02FFB00F07FFA0AA929
:104660000020095E2848814201D100F002F800F0E4
:1046700053F82898002801DA00F002F800F012F848
:104680001D4B281C8000C01802300021425E281CEF
:104690008000011CC9180020085E8018043001B297
:1046A0002898289117A8007840000121091A0DB216
:1046B00008990998084301D100F002F800F00CF8BD
:1046C00001A9289808801148009026992BB2279AB2
:1046D00000F082FA00F00BF8002501A92898088064
:1046E0000B48009026992BB2279A00F075FA11E03A
:1046F0000180FFFFFFFFFFFF780200207A02002009
:104700007C020020FFFF0F00FF0700009402002042
:104710009802002000F022FA0AA90020085E002872
:1047200001D000F002F800F00BF80899099A002077
:1047300001438F480243089109920B2500F036F897
:10474000202409990898202201F019FC011C002955
:1047500001D100F002F800F002F808990024854821
:10476000814201D8002000E001200001021C081C49
:10477000D040FF2801D8002100E00121C9000A43F0
:10478000111C08231940031CCB40181CC1B27A48E5
:10479000085C0243101C04433F20001B05B20AA919
:1047A0000020085E013000B20AA908802C1C2A1CD7
:1047B0000999089801F0B5FB08900991211C6F48F0
:1047C00009180AB20AA90020095E891A09B20AA8C2
:1047D00001800AA801886A48091A88B23D2801D8D0
:1047E00000F002F800F00FF808A804684368826837
:1047F000C1680CA8046043608260C160002114A8F5
:10480000018000F026F85F4A0AA90020095E00F046
:10481000A7F900B210A900B2FFF7ECFC14A9002020
:10482000085E002801D100F002F800F00CF808A89A
:10483000046843688268C1680CA8046043608260B1
:10484000C16000F006F810AA08A90CA80023FFF721
:1048500023FC002002A908700EA80021405E4242FD
:104860000D990C9801F08BFB0191009018A9002282
:1048700000F0D2FD01B216A8018016AA00212D98E1
:10488000505E2D902F9800202F900EA90020085EDA
:10489000002801DA00F002F800F0C8F80EAA0021A2
:1048A0002E98505E2E900EA90020085E42420021F4
:1048B000012001F036FB013800229141061C0F1C3B
:1048C0000C980D9930403940041C0D1C00F027F85D
:1048D0000222291C201C01F024FB24184D41012236
:1048E000391C301C01F04BFB061C0F1C2E980130AC
:1048F0002E9000B22E904242291C201C01F03FFB5A
:10490000C1B216A8008868446030017034403D4050
:1049100016A90020085E013000B216A908801A49C5
:104920002E98884201DA00F002F800F014F82C9A70
:10493000013216A90020085E824201DD00F002F873
:1049400000F009F8281C204301D000F002F800F024
:1049500002F8FFF7BDFF00F000F82C9A013216A90B
:104960000020085E824201DC00F012F80EE0C04632
:1049700000001000FFFF0000580100203304000079
:10498000C3FF0000C3FFFFFFE3FFFFFF00F00AF8D3
:10499000281C204301D1002100E001212F982F91F4
:1049A00000F044F8311C30983091211C2F982F9141
:1049B00000F023F82F9989002F9840182F903099F4
:1049C0004908309830912E9801302E9000B22E90E8
:1049D00041420A1C2F99D140C9B216A800886844E8
:1049E000603001702F98309908402F9016A9002050
:1049F000085E013000B216A908802C9A013216A96F
:104A00000020085E824201DC002100E001212F9895
:104A1000002801D1002000E001200840002801D03A
:104A2000FFF7C8FF00F000F800F000F82F9800280A
:104A300001D000F002F800F015F82C9A013216A807
:104A40000021405E824201DC00F002F800F00AF82A
:104A50002C99023108B216A9088001222C996944C8
:104A600061310A7016A80021415E2C98814201DD57
:104A700000F002F800F00FF801216846017016AA54
:104A800018A92C9803B200F007FC01B22D98401829
:104A90002D9000B22D902B98002801DB00F002F839
:104AA00000F024F804A92B98088003A9289808800E
:104AB00016A80021405E01A9088018A8009014A83B
:104AC0000021415E2D9A521A10B202A9088017A83F
:104AD00003782699279A00F01FFAC0B2002801D067
:104AE00000F002F800F002F800F038F816A90020F3
:104AF000095E2A98814201DD00F002F800F00FF80B
:104B000000206946087016AA18A92A9803B200F076
:104B1000C3FB01B22D9840182D9000B22D9028991A
:104B200005A80180299904A801802A9902A801807A
:104B300016A90020085E01A9088018A8009014A8F2
:104B40000021415E2D9A521A013A10B203A9088041
:104B500017A803782699279A00F0AEF85FB0F0BD49
:104B600030B598B009B210B2401A01B218480068C6
:104B700001901848006800900D1C06A8FCF75CFF27
:104B8000079B069A04A8FDF795FB04980599FEF784
:104B9000CBFF04B2002D01DD00F002F800F013F8A5
:104BA000211C06A8FCF748FF079B069A0599049864
:104BB000FDF7E8FEC0B2002801D100F002F800F0D5
:104BC00002F8013424B2201C00B218B030BDC04637
:104BD0004C04002048040020F0B5CBB00091151C17
:104BE0001EB250A901980868019051A900200A5EE0
:104BF00001980778002E01D100F002F800F003F8C8
:104C0000381C00F003F8391C013108B2FF21091AE1
:104C100009B2121A14B28C4201DD00F002F800F061
:104C200001F80C1C002C01DD00F002F800F002F885
:104C3000001900B2021C0098291CFFF7E1F80125B9
:104C4000002C01DD00F002F800F009F8E8B200994C
:104C50004018211C2022FDF77FFF2D192DB2002EB8
:104C600001D000F002F800F012F8002E01DD00F093
:104C700002F800F006F8EAB22B210098815400F007
:104C800004F8E9B22D220098425401352DB200F00B
:104C90000BF8381C40190138C2B2F9B20198415CD6
:104CA00000988154013F3FB2002F01DDFFF7F1FF73
:104CB00000F000F84BB0F0BDF0B5A3B00B91151C9F
:104CC000DEB228A90E9808680E9029AA00210F9834
:104CD000505E0F902AA900200F5E2BA900200B5ECA
:104CE0002CAA00210C98505E0C902DA900200C5E7F
:104CF000002B03DB10980020109002E01098012098
:104D000010901098002801D000F002F800F002F88E
:104D10005B421BB20021684601701BB201A9002250
:104D200000F018FC01B20D980D91081C0C998842F6
:104D300001DC00F002F800F003F80C9A00F001F832
:104D40000D9A381C033000B2121812B2012F01DD87
:104D500000F002F800F002F8013212B2FF20801ACF
:104D600000B2211C891A0CB2844201DD00F002F865
:104D700000F001F8041C002C01DD00F002F800F046
:104D800002F8121912B20B98291CFFF739F8012505
:104D9000002C01DD00F002F800F009F8E8B20B99F0
:104DA0004018211C2022FDF7D7FE2D192DB2002E10
:104DB00001D000F002F800F006F8EAB22D210B98BD
:104DC000815400F004F8EAB220210B988154013597
:104DD0002DB20F98002801DD00F002F800F009F86C
:104DE0000E9800783030C2B2E9B20B98425400F00D
:104DF00004F8EAB230210B98815401352DB2012F0D
:104E000001DD00F002F800F006F8EAB22E210B985E
:104E1000815401352DB2012300F00CF899B20E989F
:104E2000405C3030C2B2E9B20B98425401352DB229
:104E300001331BB20F98834201DB002000E0012008
:104E4000BB4201DB002100E001210140002901D02B
:104E5000FFF7E4FF00F000F8381CC01A04B2002C81
:104E600001DD00F002F800F009F8E8B20B994018F3
:104E7000211C3022FDF770FE2D192DB2EAB245211A
:104E80000B98815401352DB21098002801D000F004
:104E900002F800F006F8E9B22D220B98425400F017
:104EA00004F8E9B22B220B98425401352DB20C992B
:104EB0000D98091A0CB2002C01DD00F002F800F088
:104EC00009F8E8B20B994018211C3022FDF744FE86
:104ED0002D192DB20D9901390BB2002B01DB00F019
:104EE00002F800F014F80B4C013424B2A0B268446C
:104EF000043000783030C2B2E9B20B984254013528
:104F00002DB2A34201DC00F002F8FFF7EDFF23B061
:104F1000F0BDC046FFFFFFFFF0B5A5B00C911492A5
:104F20001198D8B211902AA90D9808680D902BA855
:104F3000018801A801802CA900200D5E2DA9002068
:104F40000E5E2EAA00211098505E10900E98002040
:104F50000E900F9800200F90109949190CB2002C58
:104F600001DA00F002F800F005F8002101A8018044
:104F700000F027F801A90020085EA04201DD00F042
:104F800002F800F01EF801A90020085E002801DDEB
:104F900000F002F800F007F801A900200A5E02A95B
:104FA0000D98FDF7F4FD00216846017001AA02A9E1
:104FB00023B200F071F900B22D182DB20F98012024
:104FC0000F90002D01DC00F00BF800F000F801A9B3
:104FD0000020085E002801D100F002F800F008F877
:104FE00016980020169015980120159000F01DF8D5
:104FF00001A90020085EA84201DA00F002F800F0E2
:105000000FF801AA00211698505E169001A9002001
:10501000085E291C091A09B21598159100F005F8C7
:1050200016981695159800201590002D01DA00F0BD
:1050300002F800F004F8684207B200F001F8002717
:105040001098874201DD00F002F800F001F8109F8F
:1050500001A90020095E1698091A09B21398139144
:1050600010991398091AC91B09B212981291119834
:10507000C2B216998918159A521812B210980028BF
:1050800001DD00F002F800F009F81399C919129B2C
:105090005B18181C013000B2121812B2FF20801ADF
:1050A00001B2002901DA00F002F800F002F800F085
:1050B000EEF8301C801A04B28C4201DD00F002F8D8
:1050C00000F001F80C1C002C01DD00F002F800F0EB
:1050D00002F8121912B20C981499FEF791FE0125EC
:1050E000002C01DD00F002F800F009F8E8B20C999C
:1050F0004018211C2022FDF72FFD2D192DB21198EB
:10510000002801D000F002F800F006F8EAB22D21E4
:105110000C98815401352DB200240F98002801D03D
:1051200000F002F800F01DF800F012F8A0B2684498
:10513000083000783030C2B2E9B20C9842540135E0
:105140002DB2013424B216980138169000B2169090
:105150001698002801DDFFF7E9FF00F000F800F0E5
:105160001AF800F011F8A1B20D98405C3030C2B2CC
:10517000E9B20C98425401352DB2013424B216988C
:105180000138169000B216901698002801DDFFF73E
:10519000EAFF00F000F81598002801DD00F002F8A1
:1051A00000F00AF8E8B20C99401815993022FDF782
:1051B000D3FC15982D182DB21098002801D000F0BE
:1051C00002F800F061F8EAB22E210C988154013502
:1051D0002DB2002F01DD00F002F800F009F8E8B26E
:1051E0000C994018391C3022FDF7B6FCED192DB290
:1051F0000F98002801D000F002F800F01DF800F030
:1052000012F8A0B26844083000783030C2B2E9B277
:105210000C98425401352DB2013424B21398013850
:10522000139000B213901398002801DDFFF7E9FFF7
:1052300000F000F800F01AF800F011F8A1B20D9893
:10524000405C3030C2B2E9B20C98425401352DB204
:10525000013424B213980138139000B213901398BC
:10526000002801DDFFF7EAFF00F000F8129800289F
:1052700001DD00F002F800F007F8E8B20C994018E0
:1052800012993022FDF768FC0E9801200E900E99BD
:10529000C8B225B0F0BD0000F0B589B00F1C009277
:1052A0001CB20EA802780026009900200B5E009820
:1052B0000480A0B2395C002A01D100F002F800F0AD
:1052C00035F8042901D100F002F800F02FF8181C7D
:1052D0000338A04201DD00F002F800F027F84C4846
:1052E0003818C05C082801D300F002F800F01EF85E
:1052F000181C023805B2013D2DB2A54201D100F0C3
:105300000AF800F000F8A8B2385C092801D000F0D3
:1053100002F800F002F800F002F8FFF7ECFFA542F7
:1053200001D100F002F800F001F80921052901D2AD
:1053300000F002F800F002F800F067F8052901D04B
:10534000002000E00120111C0140002901D000F0E4
:1053500002F800F037F8002C01D100F00DF800F051
:1053600000F82C483818015D01200140002901D1C6
:1053700000F002F800F002F800F002F800F022F865
:10538000002100F004F8013B1BB298B2395C201CEC
:105390000130984201DB002000E00120002901D00B
:1053A000002200E001220240002A01D0FFF7EBFFBB
:1053B00000F000F8002901D100F002F800F002F836
:1053C00000F023F800F015F8013C24B2A1B2785C9B
:1053D00001307854A0B2385C0A2801D200F002F8FB
:1053E00000F007F8201C013001B20098018000F0A5
:1053F0000CF8002C01DDFFF7E7FF00F000F80120BA
:105400003870012100980180012630B209B0F0BD4A
:10541000FEFFFFFFFFFFFFFFF0B597B0019105987A
:1054200010B205901C9D1D9E1EA90498087804903A
:10543000474800218E4201D000F001F8854201D298
:1054400000F002F800F00BF8069800200690039890
:1054500000200390291C0298029100F038F80021E6
:105460003B48331C2A1C00F015FE071C0C1C0023B3
:10547000374A211C381C00F0CDFF2A1C331C121A9D
:105480008B41111C02980291314800218C4201D0BD
:1054900000F001F8874201D200F002F800F008F8AD
:1054A000069800200690391C0398039100F00FF82D
:1054B00000212748231C3A1C00F0ECFD06990690B9
:1054C000011C234841433A1C521A039803920021BD
:1054D000684601700199069B059C22B200F03AF8DB
:1054E00005B2002D01D0002200E0012204991140F4
:1054F000002901D000F002F800F005F8A2B2002166
:10550000019881540125002D01D1002000E00120E7
:1055100069460870281C001902B20199039B00F02B
:1055200019F800B22D182DB2002D01D1002000E095
:10553000012069460870281C001902B20199029BDB
:1055400000F008F800B22D1828B217B0F0BDC04620
:1055500000CA9A3BF0B591B00091019810B2019049
:105560001C1C16A80578002C01D100F002F800F0F0
:1055700003F8002300F02DF83448844201D80020BD
:1055800000E001200001021C201CD040FF2801D8AF
:10559000002100E00121C9000A43161C08210E4029
:1055A000011CF140081CC1B22948085C0243111CCF
:1055B000013128484143090B0BB298B280002649BB
:1055C0004058A04201D800F002F800F002F8013380
:1055D0001BB2092B01DB002000E00120291C014047
:1055E000002901D000F002F800F001F809231E1C88
:1055F0001F1C201C00F020F8013E36B2002C01D008
:1056000000F002F800F012F8211C0A20FDF728FF34
:10561000051C0A214843211C091ACAB2311C0198F1
:105620000918009842542C1C00F006F8321C01980E
:105630001218002100988154002E01DDFFF7DCFFD5
:1056400000F000F838B211B0F0BDC046FFFF000016
:1056500058010020D104000020040020F0B5A1B0C2
:1056600000900191171C0A9326A9079808680790D3
:1056700027A90B9808680B9002A830221321FDF788
:105680006BFA9748874201D100F002F800F001F868
:10569000192768460168406800230022904201DD16
:1056A00000F009F801DA00F00EF8994201D300F099
:1056B00002F800F008F86846066845680898002077
:1056C000089000F00CF808980120089068460168DE
:1056D0004068002300225B1A82411E1C151C002416
:1056E00001342B1C321C00210A2000F0B3FD3030A5
:1056F00000225141C1B2201C6844073001702B1CAC
:10570000321C00210A2000F0C5FC061C0D1C081CE0
:10571000304301D100F002F8FFF7E2FF0D980D943D
:10572000231C0A98002801D000F002F800F001F8CC
:1057300001330A98002801DA00F002F800F024F89A
:105740000533082F01DA00F002F800F001F808270D
:10575000181CC01B061CBB4201DA00F002F800F066
:1057600001F83B1C002E01DD00F002F800F007F804
:105770003B1C0D99891B0998099100F003F80999C0
:105780000D99099100F02FF808981B1800F009F8FE
:1057900001330D9801300D9030220D996944073185
:1057A0000A700D98052801DAFFF7F2FF00F000F803
:1057B00004210A98091A0E1C09980A9809900028D1
:1057C00001D000F002F800F00DF80998042801DD7E
:1057D00000F002F800F003F80998042009900998F5
:1057E000013009909B1B002E01DD00F002F800F053
:1057F00074F80025311C02310C980C91081C0D998D
:10580000884201DD00F002F800F004F80D99013142
:105810000C980C910C99694405310878352801D30E
:1058200000F002F800F01FF80C996944063108787E
:10583000392801D200F002F800F00FF80C99013974
:105840000A1C081C6844073000780130C1B2101CE3
:1058500068440730017000F006F830220C99694462
:1058600006310A700125012D01D100F002F800F087
:1058700034F80C99694406310878302801D100F0D9
:1058800002F800F02AF800F008F830220C99694478
:1058900007310A700C9801300C900C99694407315B
:1058A0000878392801D1FFF7F0FF00F000F80C99D3
:1058B0006944073108780130C2B20C996944073154
:1058C0000A700C980D99884201DD00F002F800F092
:1058D00004F801330D9801300D90BB4202E0C04640
:1058E0000180FFFF01DA00F002F800F001F83B1C34
:1058F0000B98834201DD00F002F800F00BF8002E57
:1059000001DA00F002F800F004F8191C0B98091AEB
:1059100076180B9B07981C1C1A1C0B99FEF770FA43
:10592000201C0A98002801DA00F002F800F03DF887
:10593000684601684068084301D100F002F800F0B1
:1059400003F8002500F003F80D9905390D1C002D12
:1059500001DB00F002F800F008F8201C0238C2B2A7
:105960002B210798815400F007F8201C0238C2B29E
:105970002D21079881546D42291C0A20FDF74FFE06
:105980003030C2B2E1B207984254013C291C0A20CF
:10599000FDF7FDFD3030C2B2E1B207984254023C3F
:1059A000E2B2452107988154013C00F006F8E2B2CA
:1059B000302107988154013C0136002E01DAFFF7AF
:1059C000F6FF00F000F8301C0130011C0D9B9942DD
:1059D00001DC00F002F800F025F80C980C91081C8E
:1059E00001380C900C9801300C90099801380990FE
:1059F000002801D100F002F800F005F8E2B22E21F3
:105A000007988154013CE2B20C9969440731097846
:105A100007988154013C0C98834201DC00F002F8A5
:105A2000FFF7E0FF0898012801D100F002F800F02C
:105A300005F8E2B22D2107988154013C00F005F8E9
:105A4000E2B2202107988154013C002C01DDFFF7D0
:105A5000F7FF00F000F821B0F0BDC04630B5CCB083
:105A6000051C141C0123002008700A2020702878CF
:105A7000002801D100F002F800F003F81A1C00F031
:105A8000A1F800F001F801332878984201DB00F01A
:105A900002F800F012F8D8B2285C092801D100F011
:105AA00006F8202801D100F002F800F002F800F01A
:105AB00002F800F002F8FFF7E6FF00F000F8D8B2B5
:105AC000285C2B2801D200F012F82B3801D100F00D
:105AD0000BF8023801D100F002F800F008F80120BC
